{
  "contractName": "MasterChef",
  "abi": [
    {
      "inputs": [
        {
          "internalType": "contract CakeToken",
          "name": "_cake",
          "type": "address"
        },
        {
          "internalType": "contract SyrupBar",
          "name": "_syrup",
          "type": "address"
        },
        {
          "internalType": "address",
          "name": "_devaddr",
          "type": "address"
        },
        {
          "internalType": "uint256",
          "name": "_cakePerBlock",
          "type": "uint256"
        },
        {
          "internalType": "uint256",
          "name": "_startBlock",
          "type": "uint256"
        }
      ],
      "stateMutability": "nonpayable",
      "type": "constructor"
    },
    {
      "anonymous": false,
      "inputs": [
        {
          "indexed": true,
          "internalType": "address",
          "name": "user",
          "type": "address"
        },
        {
          "indexed": true,
          "internalType": "uint256",
          "name": "pid",
          "type": "uint256"
        },
        {
          "indexed": false,
          "internalType": "uint256",
          "name": "amount",
          "type": "uint256"
        }
      ],
      "name": "Deposit",
      "type": "event"
    },
    {
      "anonymous": false,
      "inputs": [
        {
          "indexed": true,
          "internalType": "address",
          "name": "previousOwner",
          "type": "address"
        },
        {
          "indexed": true,
          "internalType": "address",
          "name": "newOwner",
          "type": "address"
        }
      ],
      "name": "OwnershipTransferred",
      "type": "event"
    },
    {
      "anonymous": false,
      "inputs": [
        {
          "indexed": true,
          "internalType": "address",
          "name": "user",
          "type": "address"
        },
        {
          "indexed": true,
          "internalType": "uint256",
          "name": "pid",
          "type": "uint256"
        },
        {
          "indexed": false,
          "internalType": "uint256",
          "name": "amount",
          "type": "uint256"
        }
      ],
      "name": "Withdraw",
      "type": "event"
    },
    {
      "inputs": [],
      "name": "BONUS_MULTIPLIER",
      "outputs": [
        {
          "internalType": "uint256",
          "name": "",
          "type": "uint256"
        }
      ],
      "stateMutability": "view",
      "type": "function"
    },
    {
      "inputs": [],
      "name": "cake",
      "outputs": [
        {
          "internalType": "contract CakeToken",
          "name": "",
          "type": "address"
        }
      ],
      "stateMutability": "view",
      "type": "function"
    },
    {
      "inputs": [],
      "name": "cakePerBlock",
      "outputs": [
        {
          "internalType": "uint256",
          "name": "",
          "type": "uint256"
        }
      ],
      "stateMutability": "view",
      "type": "function"
    },
    {
      "inputs": [],
      "name": "devaddr",
      "outputs": [
        {
          "internalType": "address",
          "name": "",
          "type": "address"
        }
      ],
      "stateMutability": "view",
      "type": "function"
    },
    {
      "inputs": [],
      "name": "owner",
      "outputs": [
        {
          "internalType": "address",
          "name": "",
          "type": "address"
        }
      ],
      "stateMutability": "view",
      "type": "function"
    },
    {
      "inputs": [
        {
          "internalType": "uint256",
          "name": "",
          "type": "uint256"
        }
      ],
      "name": "poolInfo",
      "outputs": [
        {
          "internalType": "contract IBEP20",
          "name": "lpToken",
          "type": "address"
        },
        {
          "internalType": "uint256",
          "name": "allocPoint",
          "type": "uint256"
        },
        {
          "internalType": "uint256",
          "name": "lastRewardBlock",
          "type": "uint256"
        },
        {
          "internalType": "uint256",
          "name": "accCakePerShare",
          "type": "uint256"
        }
      ],
      "stateMutability": "view",
      "type": "function"
    },
    {
      "inputs": [],
      "name": "renounceOwnership",
      "outputs": [],
      "stateMutability": "nonpayable",
      "type": "function"
    },
    {
      "inputs": [],
      "name": "startBlock",
      "outputs": [
        {
          "internalType": "uint256",
          "name": "",
          "type": "uint256"
        }
      ],
      "stateMutability": "view",
      "type": "function"
    },
    {
      "inputs": [],
      "name": "syrup",
      "outputs": [
        {
          "internalType": "contract SyrupBar",
          "name": "",
          "type": "address"
        }
      ],
      "stateMutability": "view",
      "type": "function"
    },
    {
      "inputs": [],
      "name": "totalAllocPoint",
      "outputs": [
        {
          "internalType": "uint256",
          "name": "",
          "type": "uint256"
        }
      ],
      "stateMutability": "view",
      "type": "function"
    },
    {
      "inputs": [
        {
          "internalType": "address",
          "name": "newOwner",
          "type": "address"
        }
      ],
      "name": "transferOwnership",
      "outputs": [],
      "stateMutability": "nonpayable",
      "type": "function"
    },
    {
      "inputs": [
        {
          "internalType": "uint256",
          "name": "",
          "type": "uint256"
        },
        {
          "internalType": "address",
          "name": "",
          "type": "address"
        }
      ],
      "name": "userInfo",
      "outputs": [
        {
          "internalType": "uint256",
          "name": "amount",
          "type": "uint256"
        },
        {
          "internalType": "uint256",
          "name": "rewardDebt",
          "type": "uint256"
        }
      ],
      "stateMutability": "view",
      "type": "function"
    },
    {
      "inputs": [
        {
          "internalType": "uint256",
          "name": "multiplierNumber",
          "type": "uint256"
        }
      ],
      "name": "updateMultiplier",
      "outputs": [],
      "stateMutability": "nonpayable",
      "type": "function"
    },
    {
      "inputs": [
        {
          "internalType": "uint256",
          "name": "_from",
          "type": "uint256"
        },
        {
          "internalType": "uint256",
          "name": "_to",
          "type": "uint256"
        }
      ],
      "name": "getMultiplier",
      "outputs": [
        {
          "internalType": "uint256",
          "name": "",
          "type": "uint256"
        }
      ],
      "stateMutability": "view",
      "type": "function"
    },
    {
      "inputs": [],
      "name": "poolLength",
      "outputs": [
        {
          "internalType": "uint256",
          "name": "",
          "type": "uint256"
        }
      ],
      "stateMutability": "view",
      "type": "function"
    },
    {
      "inputs": [],
      "name": "getBlockNum",
      "outputs": [
        {
          "internalType": "uint256",
          "name": "",
          "type": "uint256"
        }
      ],
      "stateMutability": "view",
      "type": "function"
    },
    {
      "inputs": [
        {
          "internalType": "uint256",
          "name": "idx",
          "type": "uint256"
        }
      ],
      "name": "getPoolAlloc",
      "outputs": [
        {
          "internalType": "uint256",
          "name": "",
          "type": "uint256"
        }
      ],
      "stateMutability": "view",
      "type": "function"
    },
    {
      "inputs": [
        {
          "internalType": "uint256",
          "name": "idx",
          "type": "uint256"
        }
      ],
      "name": "getAccCakePerShare",
      "outputs": [
        {
          "internalType": "uint256",
          "name": "",
          "type": "uint256"
        }
      ],
      "stateMutability": "view",
      "type": "function"
    },
    {
      "inputs": [
        {
          "internalType": "uint256",
          "name": "_allocPoint",
          "type": "uint256"
        },
        {
          "internalType": "contract IBEP20",
          "name": "_lptoken",
          "type": "address"
        }
      ],
      "name": "add",
      "outputs": [],
      "stateMutability": "nonpayable",
      "type": "function"
    },
    {
      "inputs": [
        {
          "internalType": "uint256",
          "name": "_pid",
          "type": "uint256"
        },
        {
          "internalType": "uint256",
          "name": "_allocPoint",
          "type": "uint256"
        }
      ],
      "name": "set",
      "outputs": [],
      "stateMutability": "nonpayable",
      "type": "function"
    },
    {
      "inputs": [
        {
          "internalType": "uint256",
          "name": "_pid",
          "type": "uint256"
        },
        {
          "internalType": "uint256",
          "name": "_amount",
          "type": "uint256"
        }
      ],
      "name": "deposit",
      "outputs": [],
      "stateMutability": "nonpayable",
      "type": "function"
    },
    {
      "inputs": [
        {
          "internalType": "uint256",
          "name": "_pid",
          "type": "uint256"
        }
      ],
      "name": "getUserAmount",
      "outputs": [
        {
          "internalType": "uint256",
          "name": "",
          "type": "uint256"
        }
      ],
      "stateMutability": "view",
      "type": "function"
    },
    {
      "inputs": [
        {
          "internalType": "uint256",
          "name": "_pid",
          "type": "uint256"
        }
      ],
      "name": "getUserRewardDebt",
      "outputs": [
        {
          "internalType": "uint256",
          "name": "",
          "type": "uint256"
        }
      ],
      "stateMutability": "view",
      "type": "function"
    },
    {
      "inputs": [
        {
          "internalType": "uint256",
          "name": "_pid",
          "type": "uint256"
        },
        {
          "internalType": "uint256",
          "name": "_amount",
          "type": "uint256"
        }
      ],
      "name": "withdraw",
      "outputs": [],
      "stateMutability": "nonpayable",
      "type": "function"
    },
    {
      "inputs": [],
      "name": "massUpdatePools",
      "outputs": [],
      "stateMutability": "nonpayable",
      "type": "function"
    },
    {
      "inputs": [
        {
          "internalType": "uint256",
          "name": "_pid",
          "type": "uint256"
        }
      ],
      "name": "updatePool",
      "outputs": [],
      "stateMutability": "nonpayable",
      "type": "function"
    },
    {
      "inputs": [
        {
          "internalType": "uint256",
          "name": "_pid",
          "type": "uint256"
        }
      ],
      "name": "getLpSupply",
      "outputs": [
        {
          "internalType": "uint256",
          "name": "",
          "type": "uint256"
        }
      ],
      "stateMutability": "view",
      "type": "function"
    },
    {
      "inputs": [],
      "name": "updateStakingPool",
      "outputs": [],
      "stateMutability": "nonpayable",
      "type": "function"
    }
  ],
  "bytecode": "0x60806040526001600455600060085534801561001a57600080fd5b50604051612116380380612116833981810160405260a081101561003d57600080fd5b81019080805190602001909291908051906020019092919080519060200190929190805190602001909291908051906020019092919050505060006100866102d660201b60201c565b9050806000806101000a81548173ffffffffffffffffffffffffffffffffffffffff021916908373ffffffffffffffffffffffffffffffffffffffff1602179055508073ffffffffffffffffffffffffffffffffffffffff16600073ffffffffffffffffffffffffffffffffffffffff167f8be0079c531659141344cd1fd0a4f28419497f9722a3daafe3b4186f6b6457e060405160405180910390a35084600160006101000a81548173ffffffffffffffffffffffffffffffffffffffff021916908373ffffffffffffffffffffffffffffffffffffffff16021790555083600260006101000a81548173ffffffffffffffffffffffffffffffffffffffff021916908373ffffffffffffffffffffffffffffffffffffffff16021790555082600560006101000a81548173ffffffffffffffffffffffffffffffffffffffff021916908373ffffffffffffffffffffffffffffffffffffffff1602179055508160038190555080600981905550600660405180608001604052808773ffffffffffffffffffffffffffffffffffffffff1681526020016103e8815260200160095481526020016000815250908060018154018082558091505060019003906000526020600020906004020160009091909190915060008201518160000160006101000a81548173ffffffffffffffffffffffffffffffffffffffff021916908373ffffffffffffffffffffffffffffffffffffffff16021790555060208201518160010155604082015181600201556060820151816003015550506103e860088190555050505050506102de565b600033905090565b611e29806102ed6000396000f3fe608060405234801561001057600080fd5b50600436106101c45760003560e01c8063715018a6116100f9578063978e0bcd11610097578063d59f62a811610071578063d59f62a81461067b578063dce17484146106bd578063e2bbb158146106f1578063f2fde38b14610729576101c4565b8063978e0bcd146105fb5780639b9c44771461063d578063d49e77cd14610647576101c4565b80638aa28550116100d35780638aa28550146104f45780638da5cb5b146105125780638dbb1e3a1461054657806393f1a40b14610592576101c4565b8063715018a6146104985780637f6c6f10146104a257806386a952c4146104c0576101c4565b80632b8bbbe81161016657806351eb05a61161014057806351eb05a6146103f05780635ecbbf981461041e5780635ffe614614610460578063630b5ba11461048e576101c4565b80632b8bbbe81461034c578063441a3e701461039a57806348cd4cb1146103d2576101c4565b80630fa20bb6116101a25780630fa20bb6146102475780631526fe271461028957806317caf6f1146102f65780631ab06ee514610314576101c4565b80630755e0b6146101c9578063081e3eda146101e75780630828d7e914610205575b600080fd5b6101d161076d565b6040518082815260200191505060405180910390f35b6101ef610773565b6040518082815260200191505060405180910390f35b6102316004803603602081101561021b57600080fd5b8101908080359060200190929190505050610780565b6040518082815260200191505060405180910390f35b6102736004803603602081101561025d57600080fd5b81019080803590602001909291905050506107a8565b6040518082815260200191505060405180910390f35b6102b56004803603602081101561029f57600080fd5b81019080803590602001909291905050506107d0565b604051808573ffffffffffffffffffffffffffffffffffffffff16815260200184815260200183815260200182815260200194505050505060405180910390f35b6102fe61082d565b6040518082815260200191505060405180910390f35b61034a6004803603604081101561032a57600080fd5b810190808035906020019092919080359060200190929190505050610833565b005b6103986004803603604081101561036257600080fd5b8101908080359060200190929190803573ffffffffffffffffffffffffffffffffffffffff1690602001909291905050506108c3565b005b6103d0600480360360408110156103b057600080fd5b8101908080359060200190929190803590602001909291905050506109b1565b005b6103da610c36565b6040518082815260200191505060405180910390f35b61041c6004803603602081101561040657600080fd5b8101908080359060200190929190505050610c3c565b005b61044a6004803603602081101561043457600080fd5b8101908080359060200190929190505050610faa565b6040518082815260200191505060405180910390f35b61048c6004803603602081101561047657600080fd5b810190808035906020019092919050505061109e565b005b6104966110a8565b005b6104a06110d5565b005b6104aa61125b565b6040518082815260200191505060405180910390f35b6104c8611263565b604051808273ffffffffffffffffffffffffffffffffffffffff16815260200191505060405180910390f35b6104fc611289565b6040518082815260200191505060405180910390f35b61051a61128f565b604051808273ffffffffffffffffffffffffffffffffffffffff16815260200191505060405180910390f35b61057c6004803603604081101561055c57600080fd5b8101908080359060200190929190803590602001909291905050506112b8565b6040518082815260200191505060405180910390f35b6105de600480360360408110156105a857600080fd5b8101908080359060200190929190803573ffffffffffffffffffffffffffffffffffffffff1690602001909291905050506112e9565b604051808381526020018281526020019250505060405180910390f35b6106276004803603602081101561061157600080fd5b810190808035906020019092919050505061131a565b6040518082815260200191505060405180910390f35b61064561137c565b005b61064f611468565b604051808273ffffffffffffffffffffffffffffffffffffffff16815260200191505060405180910390f35b6106a76004803603602081101561069157600080fd5b810190808035906020019092919050505061148e565b6040518082815260200191505060405180910390f35b6106c56114f0565b604051808273ffffffffffffffffffffffffffffffffffffffff16815260200191505060405180910390f35b6107276004803603604081101561070757600080fd5b810190808035906020019092919080359060200190929190505050611516565b005b61076b6004803603602081101561073f57600080fd5b81019080803573ffffffffffffffffffffffffffffffffffffffff1690602001909291905050506117b6565b005b60035481565b6000600680549050905090565b60006006828154811061078f57fe5b9060005260206000209060040201600301549050919050565b6000600682815481106107b757fe5b9060005260206000209060040201600101549050919050565b600681815481106107dd57fe5b90600052602060002090600402016000915090508060000160009054906101000a900473ffffffffffffffffffffffffffffffffffffffff16908060010154908060020154908060030154905084565b60085481565b61083b6110a8565b60006006838154811061084a57fe5b9060005260206000209060040201600101549050816006848154811061086c57fe5b9060005260206000209060040201600101819055508181146108be576108af826108a18360085461188a90919063ffffffff16565b6118d490919063ffffffff16565b6008819055506108bd61137c565b5b505050565b6108cb6110a8565b600060095443116108de576009546108e0565b435b9050600660405180608001604052808473ffffffffffffffffffffffffffffffffffffffff1681526020018581526020018381526020016000815250908060018154018082558091505060019003906000526020600020906004020160009091909190915060008201518160000160006101000a81548173ffffffffffffffffffffffffffffffffffffffff021916908373ffffffffffffffffffffffffffffffffffffffff1602179055506020820151816001015560408201518160020155606082015181600301555050505050565b60008214156109bf57600080fd5b6000600683815481106109ce57fe5b9060005260206000209060040201905060006007600085815260200190815260200160002060003373ffffffffffffffffffffffffffffffffffffffff1673ffffffffffffffffffffffffffffffffffffffff16815260200190815260200160002090508281600001541015610a4357600080fd5b610a4c84610c3c565b6000610a968260010154610a8864e8d4a51000610a7a8760030154876000015461195c90919063ffffffff16565b6119e290919063ffffffff16565b61188a90919063ffffffff16565b90506000811115610aac57610aab3382611a2c565b5b6000841115610ba657610acc84836000015461188a90919063ffffffff16565b82600001819055508260000160009054906101000a900473ffffffffffffffffffffffffffffffffffffffff1673ffffffffffffffffffffffffffffffffffffffff1663a9059cbb33866040518363ffffffff1660e01b8152600401808373ffffffffffffffffffffffffffffffffffffffff16815260200182815260200192505050602060405180830381600087803b158015610b6957600080fd5b505af1158015610b7d573d6000803e3d6000fd5b505050506040513d6020811015610b9357600080fd5b8101908080519060200190929190505050505b610bd864e8d4a51000610bca8560030154856000015461195c90919063ffffffff16565b6119e290919063ffffffff16565b8260010181905550843373ffffffffffffffffffffffffffffffffffffffff167ff279e6a1f5e320cca91135676d9cb6e44ca8a08c0b88342bcdb1144f6511b568866040518082815260200191505060405180910390a35050505050565b60095481565b600060068281548110610c4b57fe5b9060005260206000209060040201905080600201544311610c6c5750610fa7565b60008160000160009054906101000a900473ffffffffffffffffffffffffffffffffffffffff1673ffffffffffffffffffffffffffffffffffffffff166370a08231306040518263ffffffff1660e01b8152600401808273ffffffffffffffffffffffffffffffffffffffff16815260200191505060206040518083038186803b158015610cf957600080fd5b505afa158015610d0d573d6000803e3d6000fd5b505050506040513d6020811015610d2357600080fd5b810190808051906020019092919050505090506000811415610d4f574382600201819055505050610fa7565b6000610d5f8360020154436112b8565b90506000610da2600854610d948660010154610d866003548761195c90919063ffffffff16565b61195c90919063ffffffff16565b6119e290919063ffffffff16565b9050600160009054906101000a900473ffffffffffffffffffffffffffffffffffffffff1673ffffffffffffffffffffffffffffffffffffffff166340c10f19600260009054906101000a900473ffffffffffffffffffffffffffffffffffffffff16610e19600a856119e290919063ffffffff16565b6040518363ffffffff1660e01b8152600401808373ffffffffffffffffffffffffffffffffffffffff16815260200182815260200192505050600060405180830381600087803b158015610e6c57600080fd5b505af1158015610e80573d6000803e3d6000fd5b50505050600160009054906101000a900473ffffffffffffffffffffffffffffffffffffffff1673ffffffffffffffffffffffffffffffffffffffff166340c10f19600260009054906101000a900473ffffffffffffffffffffffffffffffffffffffff16836040518363ffffffff1660e01b8152600401808373ffffffffffffffffffffffffffffffffffffffff16815260200182815260200192505050600060405180830381600087803b158015610f3957600080fd5b505af1158015610f4d573d6000803e3d6000fd5b50505050610f91610f7e84610f7064e8d4a510008561195c90919063ffffffff16565b6119e290919063ffffffff16565b85600301546118d490919063ffffffff16565b8460030181905550438460020181905550505050505b50565b60008060068381548110610fba57fe5b9060005260206000209060040201905060008160000160009054906101000a900473ffffffffffffffffffffffffffffffffffffffff1673ffffffffffffffffffffffffffffffffffffffff166370a08231306040518263ffffffff1660e01b8152600401808273ffffffffffffffffffffffffffffffffffffffff16815260200191505060206040518083038186803b15801561105757600080fd5b505afa15801561106b573d6000803e3d6000fd5b505050506040513d602081101561108157600080fd5b810190808051906020019092919050505090508092505050919050565b8060048190555050565b6000600680549050905060005b818110156110d1576110c681610c3c565b8060010190506110b5565b5050565b6110dd611adb565b73ffffffffffffffffffffffffffffffffffffffff1660008054906101000a900473ffffffffffffffffffffffffffffffffffffffff1673ffffffffffffffffffffffffffffffffffffffff161461119d576040517f08c379a00000000000000000000000000000000000000000000000000000000081526004018080602001828103825260208152602001807f4f776e61626c653a2063616c6c6572206973206e6f7420746865206f776e657281525060200191505060405180910390fd5b600073ffffffffffffffffffffffffffffffffffffffff1660008054906101000a900473ffffffffffffffffffffffffffffffffffffffff1673ffffffffffffffffffffffffffffffffffffffff167f8be0079c531659141344cd1fd0a4f28419497f9722a3daafe3b4186f6b6457e060405160405180910390a360008060006101000a81548173ffffffffffffffffffffffffffffffffffffffff021916908373ffffffffffffffffffffffffffffffffffffffff160217905550565b600043905090565b600260009054906101000a900473ffffffffffffffffffffffffffffffffffffffff1681565b60045481565b60008060009054906101000a900473ffffffffffffffffffffffffffffffffffffffff16905090565b60006112e16004546112d3858561188a90919063ffffffff16565b61195c90919063ffffffff16565b905092915050565b6007602052816000526040600020602052806000526040600020600091509150508060000154908060010154905082565b6000806007600084815260200190815260200160002060003373ffffffffffffffffffffffffffffffffffffffff1673ffffffffffffffffffffffffffffffffffffffff16815260200190815260200160002090508060010154915050919050565b60006006805490509050600080600190505b828110156113d4576113c7600682815481106113a657fe5b906000526020600020906004020160010154836118d490919063ffffffff16565b915080600101905061138e565b5060008114611464576113f16003826119e290919063ffffffff16565b90506114398161142b600660008154811061140857fe5b90600052602060002090600402016001015460085461188a90919063ffffffff16565b6118d490919063ffffffff16565b60088190555080600660008154811061144e57fe5b9060005260206000209060040201600101819055505b5050565b600560009054906101000a900473ffffffffffffffffffffffffffffffffffffffff1681565b6000806007600084815260200190815260200160002060003373ffffffffffffffffffffffffffffffffffffffff1673ffffffffffffffffffffffffffffffffffffffff16815260200190815260200160002090508060000154915050919050565b600160009054906101000a900473ffffffffffffffffffffffffffffffffffffffff1681565b600082141561152457600080fd5b60006006838154811061153357fe5b9060005260206000209060040201905060006007600085815260200190815260200160002060003373ffffffffffffffffffffffffffffffffffffffff1673ffffffffffffffffffffffffffffffffffffffff16815260200190815260200160002090506115a084610c3c565b60008160000154111561160f5760006115f782600101546115e964e8d4a510006115db8760030154876000015461195c90919063ffffffff16565b6119e290919063ffffffff16565b61188a90919063ffffffff16565b9050600081111561160d5761160c3382611a2c565b5b505b6000831115611727578160000160009054906101000a900473ffffffffffffffffffffffffffffffffffffffff1673ffffffffffffffffffffffffffffffffffffffff166323b872dd3330866040518463ffffffff1660e01b8152600401808473ffffffffffffffffffffffffffffffffffffffff1681526020018373ffffffffffffffffffffffffffffffffffffffff1681526020018281526020019350505050602060405180830381600087803b1580156116cb57600080fd5b505af11580156116df573d6000803e3d6000fd5b505050506040513d60208110156116f557600080fd5b81019080805190602001909291905050505061171e8382600001546118d490919063ffffffff16565b81600001819055505b61175964e8d4a5100061174b8460030154846000015461195c90919063ffffffff16565b6119e290919063ffffffff16565b8160010181905550833373ffffffffffffffffffffffffffffffffffffffff167f90890809c654f11d6e72a28fa60149770a0d11ec6c92319d6ceb2bb0a4ea1a15856040518082815260200191505060405180910390a350505050565b6117be611adb565b73ffffffffffffffffffffffffffffffffffffffff1660008054906101000a900473ffffffffffffffffffffffffffffffffffffffff1673ffffffffffffffffffffffffffffffffffffffff161461187e576040517f08c379a00000000000000000000000000000000000000000000000000000000081526004018080602001828103825260208152602001807f4f776e61626c653a2063616c6c6572206973206e6f7420746865206f776e657281525060200191505060405180910390fd5b61188781611ae3565b50565b60006118cc83836040518060400160405280601e81526020017f536166654d6174683a207375627472616374696f6e206f766572666c6f770000815250611c26565b905092915050565b600080828401905083811015611952576040517f08c379a000000000000000000000000000000000000000000000000000000000815260040180806020018281038252601b8152602001807f536166654d6174683a206164646974696f6e206f766572666c6f77000000000081525060200191505060405180910390fd5b8091505092915050565b60008083141561196f57600090506119dc565b600082840290508284828161198057fe5b04146119d7576040517f08c379a0000000000000000000000000000000000000000000000000000000008152600401808060200182810382526021815260200180611dd36021913960400191505060405180910390fd5b809150505b92915050565b6000611a2483836040518060400160405280601a81526020017f536166654d6174683a206469766973696f6e206279207a65726f000000000000815250611ce6565b905092915050565b600260009054906101000a900473ffffffffffffffffffffffffffffffffffffffff1673ffffffffffffffffffffffffffffffffffffffff1663a2e6ddcc83836040518363ffffffff1660e01b8152600401808373ffffffffffffffffffffffffffffffffffffffff16815260200182815260200192505050600060405180830381600087803b158015611abf57600080fd5b505af1158015611ad3573d6000803e3d6000fd5b505050505050565b600033905090565b600073ffffffffffffffffffffffffffffffffffffffff168173ffffffffffffffffffffffffffffffffffffffff161415611b69576040517f08c379a0000000000000000000000000000000000000000000000000000000008152600401808060200182810382526026815260200180611dad6026913960400191505060405180910390fd5b8073ffffffffffffffffffffffffffffffffffffffff1660008054906101000a900473ffffffffffffffffffffffffffffffffffffffff1673ffffffffffffffffffffffffffffffffffffffff167f8be0079c531659141344cd1fd0a4f28419497f9722a3daafe3b4186f6b6457e060405160405180910390a3806000806101000a81548173ffffffffffffffffffffffffffffffffffffffff021916908373ffffffffffffffffffffffffffffffffffffffff16021790555050565b6000838311158290611cd3576040517f08c379a00000000000000000000000000000000000000000000000000000000081526004018080602001828103825283818151815260200191508051906020019080838360005b83811015611c98578082015181840152602081019050611c7d565b50505050905090810190601f168015611cc55780820380516001836020036101000a031916815260200191505b509250505060405180910390fd5b5060008385039050809150509392505050565b60008083118290611d92576040517f08c379a00000000000000000000000000000000000000000000000000000000081526004018080602001828103825283818151815260200191508051906020019080838360005b83811015611d57578082015181840152602081019050611d3c565b50505050905090810190601f168015611d845780820380516001836020036101000a031916815260200191505b509250505060405180910390fd5b506000838581611d9e57fe5b04905080915050939250505056fe4f776e61626c653a206e6577206f776e657220697320746865207a65726f2061646472657373536166654d6174683a206d756c7469706c69636174696f6e206f766572666c6f77a26469706673582212208728601278fceffc3bd920e0e3661ca35b855b6545677c937af32983d36ddf5464736f6c634300060c0033",
  "immutableReferences": {},
  "source": "// SPDX-License-Identifier: MIT\r\npragma solidity >=0.6.12;\r\n\r\nimport '@pancakeswap/pancake-swap-lib/contracts/math/SafeMath.sol';\r\nimport '@pancakeswap/pancake-swap-lib/contracts/token/BEP20/IBEP20.sol';\r\nimport '@pancakeswap/pancake-swap-lib/contracts/token/BEP20/SafeBEP20.sol';\r\nimport '@pancakeswap/pancake-swap-lib/contracts/access/Ownable.sol';\r\n\r\nimport './CakeToken.sol';\r\nimport './SyrupBar.sol';\r\n\r\n\r\ncontract MasterChef is Ownable {\r\n    using SafeMath for uint256;\r\n    using SafeBEP20 for IBEP20;\r\n\r\n    struct UserInfo {\r\n        uint256 amount; // amount of LP tokens\r\n        uint256 rewardDebt; // already rewarded\r\n\r\n        // pending reward = (user.amount * pool.accCakePerShare) - user.rewardDebt\r\n    }\r\n\r\n    struct PoolInfo {\r\n        IBEP20 lpToken;  // Address of LP token\r\n        uint256 allocPoint; // CAKEs to distribut per block\r\n        uint256 lastRewardBlock; // Last block number that CAKEs distributed\r\n        uint256 accCakePerShare; // Accumulated CAKEs per share\r\n    }\r\n\r\n    CakeToken public cake;\r\n    SyrupBar public syrup;\r\n    uint256 public cakePerBlock;\r\n    uint256 public BONUS_MULTIPLIER = 1;\r\n    address public devaddr;\r\n\r\n    PoolInfo[] public poolInfo;\r\n    mapping (uint256 => mapping(address => UserInfo)) public userInfo;\r\n\r\n    uint256 public totalAllocPoint = 0;\r\n    uint256 public startBlock;\r\n\r\n    event Deposit(address indexed user, uint256 indexed pid, uint256 amount);\r\n    event Withdraw(address indexed user, uint256 indexed pid, uint256 amount);\r\n\r\n    constructor(CakeToken _cake, SyrupBar _syrup, address _devaddr, uint256 _cakePerBlock, uint256 _startBlock) public {\r\n        cake = _cake; syrup = _syrup; devaddr = _devaddr; cakePerBlock = _cakePerBlock; startBlock = _startBlock;\r\n        // First LP token is CAKE, index : 0\r\n        poolInfo.push(PoolInfo({\r\n            lpToken : _cake, allocPoint : 1000, lastRewardBlock : startBlock, accCakePerShare : 0\r\n        }));\r\n        totalAllocPoint = 1000;\r\n    }\r\n\r\n    function updateMultiplier(uint256 multiplierNumber) public {\r\n        BONUS_MULTIPLIER = multiplierNumber;\r\n    }\r\n\r\n    function getMultiplier(uint256 _from, uint256 _to) public view returns (uint256) {\r\n        return _to.sub(_from).mul(BONUS_MULTIPLIER);\r\n    }\r\n\r\n    function poolLength() external view returns(uint256) { return poolInfo.length; }\r\n\r\n    function getBlockNum() public view returns(uint256) {return block.number;}\r\n    function getPoolAlloc(uint idx) public view returns(uint256) {\r\n        return poolInfo[idx].allocPoint;\r\n    }\r\n    function getAccCakePerShare(uint idx) public view returns(uint256) {\r\n        return poolInfo[idx].accCakePerShare;\r\n    }\r\n\r\n    // Add new lp to the pool, it is OnlyOwner function\r\n    function add(uint256 _allocPoint, IBEP20 _lptoken) public  {\r\n        massUpdatePools();\r\n        \r\n        uint256 lastRewardBlock = block.number > startBlock ? block.number : startBlock;\r\n        poolInfo.push(\r\n            PoolInfo({\r\n            lpToken: _lptoken, \r\n            allocPoint: _allocPoint, \r\n            lastRewardBlock: lastRewardBlock, \r\n            accCakePerShare : 0\r\n        }));\r\n    }\r\n\r\n    // Update CAKE allocation point, it is OnlyOwner function\r\n    function set(uint256 _pid, uint256 _allocPoint) public {\r\n        massUpdatePools();\r\n\r\n        uint256 prevAllocPoint = poolInfo[_pid].allocPoint;\r\n        poolInfo[_pid].allocPoint = _allocPoint;\r\n        \r\n        if (prevAllocPoint != _allocPoint) {\r\n            totalAllocPoint = totalAllocPoint.sub(prevAllocPoint).add(_allocPoint);\r\n            updateStakingPool();\r\n        }\r\n    }\r\n\r\n    // Deposit LP tokens to MasterChef\r\n    function deposit(uint256 _pid, uint256 _amount) public {\r\n        require(_pid != 0);\r\n\r\n        PoolInfo storage pool = poolInfo[_pid];\r\n        UserInfo storage user = userInfo[_pid][msg.sender];\r\n\r\n        updatePool(_pid);\r\n\r\n        if (user.amount > 0) {\r\n            uint256 pending = user.amount.mul(pool.accCakePerShare).div(1e12).sub(user.rewardDebt);\r\n            if (pending > 0) { \r\n                // Get pending with CAKE token from SyrupBar\r\n                // Get all of current balance in syrup if pending > syrup balance\r\n                safeCakeTransfer(msg.sender, pending);\r\n            }\r\n        }\r\n\r\n        if(_amount > 0) {\r\n            pool.lpToken.transferFrom(address(msg.sender), address(this), _amount);\r\n            user.amount = user.amount.add(_amount);\r\n        }\r\n\r\n        user.rewardDebt = user.amount.mul(pool.accCakePerShare).div(1e12);\r\n        emit Deposit(msg.sender, _pid, _amount);\r\n    }\r\n\r\n    function getUserAmount(uint256 _pid) public view returns(uint256) {\r\n        UserInfo storage user = userInfo[_pid][msg.sender];\r\n        return user.amount;\r\n    }\r\n\r\n    function getUserRewardDebt(uint256 _pid) public view returns(uint256) {\r\n        UserInfo storage user = userInfo[_pid][msg.sender];\r\n        return user.rewardDebt;\r\n    }\r\n\r\n    // Withdraw LP tokens from MasterChef\r\n    function withdraw(uint256 _pid, uint256 _amount) public {\r\n        require(_pid != 0);\r\n\r\n        PoolInfo storage pool = poolInfo[_pid];\r\n        UserInfo storage user = userInfo[_pid][msg.sender];\r\n        require(user.amount >= _amount);\r\n\r\n        updatePool(_pid);\r\n\r\n        uint256 pending = user.amount.mul(pool.accCakePerShare).div(1e12).sub(user.rewardDebt);\r\n        if (pending > 0) { safeCakeTransfer(msg.sender, pending); }\r\n        if (_amount > 0) {\r\n            user.amount = user.amount.sub(_amount);\r\n            pool.lpToken.transfer(address(msg.sender), _amount);\r\n        }\r\n\r\n        user.rewardDebt = user.amount.mul(pool.accCakePerShare).div(1e12);\r\n        emit Withdraw(msg.sender, _pid, _amount);\r\n    }\r\n\r\n\r\n\r\n\r\n    // Update whole pool\r\n    function massUpdatePools() public {\r\n        uint256 length = poolInfo.length;\r\n        for (uint256 pid = 0; pid < length; ++pid) {\r\n            updatePool(pid);\r\n        }\r\n    }\r\n\r\n    // Update reward of the pool\r\n    function updatePool(uint256 _pid) public {\r\n        PoolInfo storage pool = poolInfo[_pid];\r\n        if (block.number <= pool.lastRewardBlock) return;\r\n        uint256 lpSupply = pool.lpToken.balanceOf(address(this));\r\n        if (lpSupply == 0) {\r\n            pool.lastRewardBlock = block.number;\r\n            return;\r\n        }\r\n\r\n        uint256 multiplier = getMultiplier(pool.lastRewardBlock, block.number);\r\n        uint256 cakeReward = multiplier.mul(cakePerBlock).mul(pool.allocPoint).div(totalAllocPoint);\r\n        \r\n        cake.mint(address(syrup), cakeReward.div(10));\r\n        cake.mint(address(syrup), cakeReward);\r\n\r\n        pool.accCakePerShare = pool.accCakePerShare.add(cakeReward.mul(1e12).div(lpSupply));\r\n        pool.lastRewardBlock = block.number;\r\n    }\r\n\r\n    function getLpSupply(uint256 _pid) public view returns(uint256) {\r\n        PoolInfo storage pool = poolInfo[_pid];\r\n        uint256 lpSupply = pool.lpToken.balanceOf(address(this));\r\n        return lpSupply;\r\n    }\r\n\r\n    // For LP Cake pool. it restake accPoint Automatically\r\n    function updateStakingPool() public {\r\n        uint256 length = poolInfo.length;\r\n        uint256 points = 0;\r\n\r\n        for (uint256 pid = 1; pid<length; ++pid) {\r\n            points = points.add(poolInfo[pid].allocPoint);\r\n        }\r\n        if (points != 0) {\r\n            points = points.div(3); //why\r\n            totalAllocPoint = totalAllocPoint.sub(poolInfo[0].allocPoint).add(points);\r\n            poolInfo[0].allocPoint = points;\r\n        }\r\n\r\n    }\r\n    \r\n    function safeCakeTransfer (address _to, uint256 _amount) internal {\r\n        syrup.safeCakeTransfer(_to, _amount);\r\n    }\r\n\r\n}\r\n\r\n\r\n\r\n\r\n\r\n\r\n",
  "sourcePath": "C:\\Users\\01097\\Desktop\\MasterChef\\contracts\\MasterChef.sol",
  "compiler": {
    "name": "solc",
    "version": "0.6.12+commit.27d51765.Emscripten.clang"
  },
  "schemaVersion": "3.4.3",
  "updatedAt": "2021-10-30T06:47:01.953Z",
  "networkType": "ethereum",
  "devdoc": {
    "kind": "dev",
    "methods": {
      "owner()": {
        "details": "Returns the address of the current owner."
      },
      "renounceOwnership()": {
        "details": "Leaves the contract without owner. It will not be possible to call `onlyOwner` functions anymore. Can only be called by the current owner. NOTE: Renouncing ownership will leave the contract without an owner, thereby removing any functionality that is only available to the owner."
      },
      "transferOwnership(address)": {
        "details": "Transfers ownership of the contract to a new account (`newOwner`). Can only be called by the current owner."
      }
    },
    "version": 1
  },
  "userdoc": {
    "kind": "user",
    "methods": {},
    "version": 1
  }
}