{
  "contractName": "MasterChef",
  "abi": [
    {
      "inputs": [
        {
          "internalType": "contract CakeToken",
          "name": "_cake",
          "type": "address"
        },
        {
          "internalType": "contract SyrupBar",
          "name": "_syrup",
          "type": "address"
        },
        {
          "internalType": "uint256",
          "name": "_cakePerBlock",
          "type": "uint256"
        },
        {
          "internalType": "uint256",
          "name": "_startBlock",
          "type": "uint256"
        }
      ],
      "stateMutability": "nonpayable",
      "type": "constructor"
    },
    {
      "anonymous": false,
      "inputs": [
        {
          "indexed": true,
          "internalType": "address",
          "name": "user",
          "type": "address"
        },
        {
          "indexed": true,
          "internalType": "uint256",
          "name": "pid",
          "type": "uint256"
        },
        {
          "indexed": false,
          "internalType": "uint256",
          "name": "amount",
          "type": "uint256"
        }
      ],
      "name": "Deposit",
      "type": "event"
    },
    {
      "anonymous": false,
      "inputs": [
        {
          "indexed": true,
          "internalType": "address",
          "name": "previousOwner",
          "type": "address"
        },
        {
          "indexed": true,
          "internalType": "address",
          "name": "newOwner",
          "type": "address"
        }
      ],
      "name": "OwnershipTransferred",
      "type": "event"
    },
    {
      "anonymous": false,
      "inputs": [
        {
          "indexed": true,
          "internalType": "address",
          "name": "user",
          "type": "address"
        },
        {
          "indexed": true,
          "internalType": "uint256",
          "name": "pid",
          "type": "uint256"
        },
        {
          "indexed": false,
          "internalType": "uint256",
          "name": "amount",
          "type": "uint256"
        }
      ],
      "name": "Withdraw",
      "type": "event"
    },
    {
      "inputs": [],
      "name": "BONUS_MULTIPLIER",
      "outputs": [
        {
          "internalType": "uint256",
          "name": "",
          "type": "uint256"
        }
      ],
      "stateMutability": "view",
      "type": "function"
    },
    {
      "inputs": [],
      "name": "cake",
      "outputs": [
        {
          "internalType": "contract CakeToken",
          "name": "",
          "type": "address"
        }
      ],
      "stateMutability": "view",
      "type": "function"
    },
    {
      "inputs": [],
      "name": "cakePerBlock",
      "outputs": [
        {
          "internalType": "uint256",
          "name": "",
          "type": "uint256"
        }
      ],
      "stateMutability": "view",
      "type": "function"
    },
    {
      "inputs": [],
      "name": "owner",
      "outputs": [
        {
          "internalType": "address",
          "name": "",
          "type": "address"
        }
      ],
      "stateMutability": "view",
      "type": "function"
    },
    {
      "inputs": [
        {
          "internalType": "uint256",
          "name": "",
          "type": "uint256"
        }
      ],
      "name": "poolInfo",
      "outputs": [
        {
          "internalType": "contract IBEP20",
          "name": "lpToken",
          "type": "address"
        },
        {
          "internalType": "uint256",
          "name": "allocPoint",
          "type": "uint256"
        },
        {
          "internalType": "uint256",
          "name": "lastRewardBlock",
          "type": "uint256"
        },
        {
          "internalType": "uint256",
          "name": "accCakePerShare",
          "type": "uint256"
        }
      ],
      "stateMutability": "view",
      "type": "function"
    },
    {
      "inputs": [],
      "name": "renounceOwnership",
      "outputs": [],
      "stateMutability": "nonpayable",
      "type": "function"
    },
    {
      "inputs": [],
      "name": "startBlock",
      "outputs": [
        {
          "internalType": "uint256",
          "name": "",
          "type": "uint256"
        }
      ],
      "stateMutability": "view",
      "type": "function"
    },
    {
      "inputs": [],
      "name": "syrup",
      "outputs": [
        {
          "internalType": "contract SyrupBar",
          "name": "",
          "type": "address"
        }
      ],
      "stateMutability": "view",
      "type": "function"
    },
    {
      "inputs": [],
      "name": "totalAllocPoint",
      "outputs": [
        {
          "internalType": "uint256",
          "name": "",
          "type": "uint256"
        }
      ],
      "stateMutability": "view",
      "type": "function"
    },
    {
      "inputs": [
        {
          "internalType": "address",
          "name": "newOwner",
          "type": "address"
        }
      ],
      "name": "transferOwnership",
      "outputs": [],
      "stateMutability": "nonpayable",
      "type": "function"
    },
    {
      "inputs": [
        {
          "internalType": "uint256",
          "name": "",
          "type": "uint256"
        },
        {
          "internalType": "address",
          "name": "",
          "type": "address"
        }
      ],
      "name": "userInfo",
      "outputs": [
        {
          "internalType": "uint256",
          "name": "amount",
          "type": "uint256"
        },
        {
          "internalType": "uint256",
          "name": "rewardDebt",
          "type": "uint256"
        }
      ],
      "stateMutability": "view",
      "type": "function"
    },
    {
      "inputs": [
        {
          "internalType": "uint256",
          "name": "multiplierNumber",
          "type": "uint256"
        }
      ],
      "name": "updateMultiplier",
      "outputs": [],
      "stateMutability": "nonpayable",
      "type": "function"
    },
    {
      "inputs": [
        {
          "internalType": "uint256",
          "name": "_from",
          "type": "uint256"
        },
        {
          "internalType": "uint256",
          "name": "_to",
          "type": "uint256"
        }
      ],
      "name": "getMultiplier",
      "outputs": [
        {
          "internalType": "uint256",
          "name": "",
          "type": "uint256"
        }
      ],
      "stateMutability": "view",
      "type": "function"
    },
    {
      "inputs": [],
      "name": "poolLength",
      "outputs": [
        {
          "internalType": "uint256",
          "name": "",
          "type": "uint256"
        }
      ],
      "stateMutability": "view",
      "type": "function"
    },
    {
      "inputs": [],
      "name": "getBlockNum",
      "outputs": [
        {
          "internalType": "uint256",
          "name": "",
          "type": "uint256"
        }
      ],
      "stateMutability": "view",
      "type": "function"
    },
    {
      "inputs": [
        {
          "internalType": "uint256",
          "name": "idx",
          "type": "uint256"
        }
      ],
      "name": "getPoolAlloc",
      "outputs": [
        {
          "internalType": "uint256",
          "name": "",
          "type": "uint256"
        }
      ],
      "stateMutability": "view",
      "type": "function"
    },
    {
      "inputs": [
        {
          "internalType": "uint256",
          "name": "_allocPoint",
          "type": "uint256"
        },
        {
          "internalType": "contract IBEP20",
          "name": "_lptoken",
          "type": "address"
        }
      ],
      "name": "add",
      "outputs": [],
      "stateMutability": "nonpayable",
      "type": "function"
    },
    {
      "inputs": [
        {
          "internalType": "uint256",
          "name": "_pid",
          "type": "uint256"
        },
        {
          "internalType": "uint256",
          "name": "_allocPoint",
          "type": "uint256"
        }
      ],
      "name": "set",
      "outputs": [],
      "stateMutability": "nonpayable",
      "type": "function"
    },
    {
      "inputs": [
        {
          "internalType": "uint256",
          "name": "_pid",
          "type": "uint256"
        },
        {
          "internalType": "uint256",
          "name": "_amount",
          "type": "uint256"
        }
      ],
      "name": "deposit",
      "outputs": [],
      "stateMutability": "nonpayable",
      "type": "function"
    },
    {
      "inputs": [
        {
          "internalType": "uint256",
          "name": "_pid",
          "type": "uint256"
        }
      ],
      "name": "getUserAmount",
      "outputs": [
        {
          "internalType": "uint256",
          "name": "",
          "type": "uint256"
        }
      ],
      "stateMutability": "view",
      "type": "function"
    },
    {
      "inputs": [
        {
          "internalType": "uint256",
          "name": "_pid",
          "type": "uint256"
        }
      ],
      "name": "getUserRewardDebt",
      "outputs": [
        {
          "internalType": "uint256",
          "name": "",
          "type": "uint256"
        }
      ],
      "stateMutability": "view",
      "type": "function"
    },
    {
      "inputs": [
        {
          "internalType": "uint256",
          "name": "_pid",
          "type": "uint256"
        },
        {
          "internalType": "uint256",
          "name": "_amount",
          "type": "uint256"
        }
      ],
      "name": "withdraw",
      "outputs": [],
      "stateMutability": "nonpayable",
      "type": "function"
    },
    {
      "inputs": [],
      "name": "massUpdatePools",
      "outputs": [],
      "stateMutability": "nonpayable",
      "type": "function"
    },
    {
      "inputs": [
        {
          "internalType": "uint256",
          "name": "_pid",
          "type": "uint256"
        }
      ],
      "name": "updatePool",
      "outputs": [],
      "stateMutability": "nonpayable",
      "type": "function"
    },
    {
      "inputs": [],
      "name": "updateStakingPool",
      "outputs": [],
      "stateMutability": "nonpayable",
      "type": "function"
    }
  ],
  "bytecode": "0x60806040526001600455600060075534801561001a57600080fd5b50604051611d9f380380611d9f8339818101604052608081101561003d57600080fd5b8101908080519060200190929190805190602001909291908051906020019092919080519060200190929190505050600061007c61028a60201b60201c565b9050806000806101000a81548173ffffffffffffffffffffffffffffffffffffffff021916908373ffffffffffffffffffffffffffffffffffffffff1602179055508073ffffffffffffffffffffffffffffffffffffffff16600073ffffffffffffffffffffffffffffffffffffffff167f8be0079c531659141344cd1fd0a4f28419497f9722a3daafe3b4186f6b6457e060405160405180910390a35083600160006101000a81548173ffffffffffffffffffffffffffffffffffffffff021916908373ffffffffffffffffffffffffffffffffffffffff16021790555082600260006101000a81548173ffffffffffffffffffffffffffffffffffffffff021916908373ffffffffffffffffffffffffffffffffffffffff1602179055508160038190555080600881905550600560405180608001604052808673ffffffffffffffffffffffffffffffffffffffff1681526020016103e8815260200160085481526020016000815250908060018154018082558091505060019003906000526020600020906004020160009091909190915060008201518160000160006101000a81548173ffffffffffffffffffffffffffffffffffffffff021916908373ffffffffffffffffffffffffffffffffffffffff16021790555060208201518160010155604082015181600201556060820151816003015550506103e860078190555050505050610292565b600033905090565b611afe806102a16000396000f3fe608060405234801561001057600080fd5b50600436106101735760003560e01c8063715018a6116100de57806393f1a40b11610097578063d59f62a811610071578063d59f62a814610572578063dce17484146105b4578063e2bbb158146105e8578063f2fde38b1461062057610173565b806393f1a40b146104bd578063978e0bcd146105265780639b9c44771461056857610173565b8063715018a6146103c35780637f6c6f10146103cd57806386a952c4146103eb5780638aa285501461041f5780638da5cb5b1461043d5780638dbb1e3a1461047157610173565b80632b8bbbe8116101305780632b8bbbe8146102b9578063441a3e701461030757806348cd4cb11461033f57806351eb05a61461035d5780635ffe61461461038b578063630b5ba1146103b957610173565b80630755e0b614610178578063081e3eda146101965780630fa20bb6146101b45780631526fe27146101f657806317caf6f1146102635780631ab06ee514610281575b600080fd5b610180610664565b6040518082815260200191505060405180910390f35b61019e61066a565b6040518082815260200191505060405180910390f35b6101e0600480360360208110156101ca57600080fd5b8101908080359060200190929190505050610677565b6040518082815260200191505060405180910390f35b6102226004803603602081101561020c57600080fd5b810190808035906020019092919050505061069f565b604051808573ffffffffffffffffffffffffffffffffffffffff16815260200184815260200183815260200182815260200194505050505060405180910390f35b61026b6106fc565b6040518082815260200191505060405180910390f35b6102b76004803603604081101561029757600080fd5b810190808035906020019092919080359060200190929190505050610702565b005b610305600480360360408110156102cf57600080fd5b8101908080359060200190929190803573ffffffffffffffffffffffffffffffffffffffff169060200190929190505050610792565b005b61033d6004803603604081101561031d57600080fd5b810190808035906020019092919080359060200190929190505050610880565b005b610347610b05565b6040518082815260200191505060405180910390f35b6103896004803603602081101561037357600080fd5b8101908080359060200190929190505050610b0b565b005b6103b7600480360360208110156103a157600080fd5b8101908080359060200190929190505050610d99565b005b6103c1610da3565b005b6103cb610dd0565b005b6103d5610f56565b6040518082815260200191505060405180910390f35b6103f3610f5e565b604051808273ffffffffffffffffffffffffffffffffffffffff16815260200191505060405180910390f35b610427610f84565b6040518082815260200191505060405180910390f35b610445610f8a565b604051808273ffffffffffffffffffffffffffffffffffffffff16815260200191505060405180910390f35b6104a76004803603604081101561048757600080fd5b810190808035906020019092919080359060200190929190505050610fb3565b6040518082815260200191505060405180910390f35b610509600480360360408110156104d357600080fd5b8101908080359060200190929190803573ffffffffffffffffffffffffffffffffffffffff169060200190929190505050610fe4565b604051808381526020018281526020019250505060405180910390f35b6105526004803603602081101561053c57600080fd5b8101908080359060200190929190505050611015565b6040518082815260200191505060405180910390f35b610570611077565b005b61059e6004803603602081101561058857600080fd5b8101908080359060200190929190505050611163565b6040518082815260200191505060405180910390f35b6105bc6111c5565b604051808273ffffffffffffffffffffffffffffffffffffffff16815260200191505060405180910390f35b61061e600480360360408110156105fe57600080fd5b8101908080359060200190929190803590602001909291905050506111eb565b005b6106626004803603602081101561063657600080fd5b81019080803573ffffffffffffffffffffffffffffffffffffffff16906020019092919050505061148b565b005b60035481565b6000600580549050905090565b60006005828154811061068657fe5b9060005260206000209060040201600101549050919050565b600581815481106106ac57fe5b90600052602060002090600402016000915090508060000160009054906101000a900473ffffffffffffffffffffffffffffffffffffffff16908060010154908060020154908060030154905084565b60075481565b61070a610da3565b60006005838154811061071957fe5b9060005260206000209060040201600101549050816005848154811061073b57fe5b90600052602060002090600402016001018190555081811461078d5761077e826107708360075461155f90919063ffffffff16565b6115a990919063ffffffff16565b60078190555061078c611077565b5b505050565b61079a610da3565b600060085443116107ad576008546107af565b435b9050600560405180608001604052808473ffffffffffffffffffffffffffffffffffffffff1681526020018581526020018381526020016000815250908060018154018082558091505060019003906000526020600020906004020160009091909190915060008201518160000160006101000a81548173ffffffffffffffffffffffffffffffffffffffff021916908373ffffffffffffffffffffffffffffffffffffffff1602179055506020820151816001015560408201518160020155606082015181600301555050505050565b600082141561088e57600080fd5b60006005838154811061089d57fe5b9060005260206000209060040201905060006006600085815260200190815260200160002060003373ffffffffffffffffffffffffffffffffffffffff1673ffffffffffffffffffffffffffffffffffffffff1681526020019081526020016000209050828160000154101561091257600080fd5b61091b84610b0b565b6000610965826001015461095764e8d4a510006109498760030154876000015461163190919063ffffffff16565b6116b790919063ffffffff16565b61155f90919063ffffffff16565b9050600081111561097b5761097a3382611701565b5b6000841115610a755761099b84836000015461155f90919063ffffffff16565b82600001819055508260000160009054906101000a900473ffffffffffffffffffffffffffffffffffffffff1673ffffffffffffffffffffffffffffffffffffffff1663a9059cbb33866040518363ffffffff1660e01b8152600401808373ffffffffffffffffffffffffffffffffffffffff16815260200182815260200192505050602060405180830381600087803b158015610a3857600080fd5b505af1158015610a4c573d6000803e3d6000fd5b505050506040513d6020811015610a6257600080fd5b8101908080519060200190929190505050505b610aa764e8d4a51000610a998560030154856000015461163190919063ffffffff16565b6116b790919063ffffffff16565b8260010181905550843373ffffffffffffffffffffffffffffffffffffffff167ff279e6a1f5e320cca91135676d9cb6e44ca8a08c0b88342bcdb1144f6511b568866040518082815260200191505060405180910390a35050505050565b60085481565b600060058281548110610b1a57fe5b9060005260206000209060040201905080600201544311610b3b5750610d96565b60008160000160009054906101000a900473ffffffffffffffffffffffffffffffffffffffff1673ffffffffffffffffffffffffffffffffffffffff166370a08231306040518263ffffffff1660e01b8152600401808273ffffffffffffffffffffffffffffffffffffffff16815260200191505060206040518083038186803b158015610bc857600080fd5b505afa158015610bdc573d6000803e3d6000fd5b505050506040513d6020811015610bf257600080fd5b810190808051906020019092919050505090506000811415610c1e574382600201819055505050610d96565b6000610c2e836002015443610fb3565b90506000610c71600754610c638660010154610c556003548761163190919063ffffffff16565b61163190919063ffffffff16565b6116b790919063ffffffff16565b9050600160009054906101000a900473ffffffffffffffffffffffffffffffffffffffff1673ffffffffffffffffffffffffffffffffffffffff166340c10f19600260009054906101000a900473ffffffffffffffffffffffffffffffffffffffff16836040518363ffffffff1660e01b8152600401808373ffffffffffffffffffffffffffffffffffffffff16815260200182815260200192505050600060405180830381600087803b158015610d2857600080fd5b505af1158015610d3c573d6000803e3d6000fd5b50505050610d80610d6d84610d5f64e8d4a510008561163190919063ffffffff16565b6116b790919063ffffffff16565b85600301546115a990919063ffffffff16565b8460030181905550438460020181905550505050505b50565b8060048190555050565b6000600580549050905060005b81811015610dcc57610dc181610b0b565b806001019050610db0565b5050565b610dd86117b0565b73ffffffffffffffffffffffffffffffffffffffff1660008054906101000a900473ffffffffffffffffffffffffffffffffffffffff1673ffffffffffffffffffffffffffffffffffffffff1614610e98576040517f08c379a00000000000000000000000000000000000000000000000000000000081526004018080602001828103825260208152602001807f4f776e61626c653a2063616c6c6572206973206e6f7420746865206f776e657281525060200191505060405180910390fd5b600073ffffffffffffffffffffffffffffffffffffffff1660008054906101000a900473ffffffffffffffffffffffffffffffffffffffff1673ffffffffffffffffffffffffffffffffffffffff167f8be0079c531659141344cd1fd0a4f28419497f9722a3daafe3b4186f6b6457e060405160405180910390a360008060006101000a81548173ffffffffffffffffffffffffffffffffffffffff021916908373ffffffffffffffffffffffffffffffffffffffff160217905550565b600043905090565b600260009054906101000a900473ffffffffffffffffffffffffffffffffffffffff1681565b60045481565b60008060009054906101000a900473ffffffffffffffffffffffffffffffffffffffff16905090565b6000610fdc600454610fce858561155f90919063ffffffff16565b61163190919063ffffffff16565b905092915050565b6006602052816000526040600020602052806000526040600020600091509150508060000154908060010154905082565b6000806006600084815260200190815260200160002060003373ffffffffffffffffffffffffffffffffffffffff1673ffffffffffffffffffffffffffffffffffffffff16815260200190815260200160002090508060010154915050919050565b60006005805490509050600080600190505b828110156110cf576110c2600582815481106110a157fe5b906000526020600020906004020160010154836115a990919063ffffffff16565b9150806001019050611089565b506000811461115f576110ec6003826116b790919063ffffffff16565b905061113481611126600560008154811061110357fe5b90600052602060002090600402016001015460075461155f90919063ffffffff16565b6115a990919063ffffffff16565b60078190555080600560008154811061114957fe5b9060005260206000209060040201600101819055505b5050565b6000806006600084815260200190815260200160002060003373ffffffffffffffffffffffffffffffffffffffff1673ffffffffffffffffffffffffffffffffffffffff16815260200190815260200160002090508060000154915050919050565b600160009054906101000a900473ffffffffffffffffffffffffffffffffffffffff1681565b60008214156111f957600080fd5b60006005838154811061120857fe5b9060005260206000209060040201905060006006600085815260200190815260200160002060003373ffffffffffffffffffffffffffffffffffffffff1673ffffffffffffffffffffffffffffffffffffffff168152602001908152602001600020905061127584610b0b565b6000816000015411156112e45760006112cc82600101546112be64e8d4a510006112b08760030154876000015461163190919063ffffffff16565b6116b790919063ffffffff16565b61155f90919063ffffffff16565b905060008111156112e2576112e13382611701565b5b505b60008311156113fc578160000160009054906101000a900473ffffffffffffffffffffffffffffffffffffffff1673ffffffffffffffffffffffffffffffffffffffff166323b872dd3330866040518463ffffffff1660e01b8152600401808473ffffffffffffffffffffffffffffffffffffffff1681526020018373ffffffffffffffffffffffffffffffffffffffff1681526020018281526020019350505050602060405180830381600087803b1580156113a057600080fd5b505af11580156113b4573d6000803e3d6000fd5b505050506040513d60208110156113ca57600080fd5b8101908080519060200190929190505050506113f38382600001546115a990919063ffffffff16565b81600001819055505b61142e64e8d4a510006114208460030154846000015461163190919063ffffffff16565b6116b790919063ffffffff16565b8160010181905550833373ffffffffffffffffffffffffffffffffffffffff167f90890809c654f11d6e72a28fa60149770a0d11ec6c92319d6ceb2bb0a4ea1a15856040518082815260200191505060405180910390a350505050565b6114936117b0565b73ffffffffffffffffffffffffffffffffffffffff1660008054906101000a900473ffffffffffffffffffffffffffffffffffffffff1673ffffffffffffffffffffffffffffffffffffffff1614611553576040517f08c379a00000000000000000000000000000000000000000000000000000000081526004018080602001828103825260208152602001807f4f776e61626c653a2063616c6c6572206973206e6f7420746865206f776e657281525060200191505060405180910390fd5b61155c816117b8565b50565b60006115a183836040518060400160405280601e81526020017f536166654d6174683a207375627472616374696f6e206f766572666c6f7700008152506118fb565b905092915050565b600080828401905083811015611627576040517f08c379a000000000000000000000000000000000000000000000000000000000815260040180806020018281038252601b8152602001807f536166654d6174683a206164646974696f6e206f766572666c6f77000000000081525060200191505060405180910390fd5b8091505092915050565b60008083141561164457600090506116b1565b600082840290508284828161165557fe5b04146116ac576040517f08c379a0000000000000000000000000000000000000000000000000000000008152600401808060200182810382526021815260200180611aa86021913960400191505060405180910390fd5b809150505b92915050565b60006116f983836040518060400160405280601a81526020017f536166654d6174683a206469766973696f6e206279207a65726f0000000000008152506119bb565b905092915050565b600260009054906101000a900473ffffffffffffffffffffffffffffffffffffffff1673ffffffffffffffffffffffffffffffffffffffff1663a2e6ddcc83836040518363ffffffff1660e01b8152600401808373ffffffffffffffffffffffffffffffffffffffff16815260200182815260200192505050600060405180830381600087803b15801561179457600080fd5b505af11580156117a8573d6000803e3d6000fd5b505050505050565b600033905090565b600073ffffffffffffffffffffffffffffffffffffffff168173ffffffffffffffffffffffffffffffffffffffff16141561183e576040517f08c379a0000000000000000000000000000000000000000000000000000000008152600401808060200182810382526026815260200180611a826026913960400191505060405180910390fd5b8073ffffffffffffffffffffffffffffffffffffffff1660008054906101000a900473ffffffffffffffffffffffffffffffffffffffff1673ffffffffffffffffffffffffffffffffffffffff167f8be0079c531659141344cd1fd0a4f28419497f9722a3daafe3b4186f6b6457e060405160405180910390a3806000806101000a81548173ffffffffffffffffffffffffffffffffffffffff021916908373ffffffffffffffffffffffffffffffffffffffff16021790555050565b60008383111582906119a8576040517f08c379a00000000000000000000000000000000000000000000000000000000081526004018080602001828103825283818151815260200191508051906020019080838360005b8381101561196d578082015181840152602081019050611952565b50505050905090810190601f16801561199a5780820380516001836020036101000a031916815260200191505b509250505060405180910390fd5b5060008385039050809150509392505050565b60008083118290611a67576040517f08c379a00000000000000000000000000000000000000000000000000000000081526004018080602001828103825283818151815260200191508051906020019080838360005b83811015611a2c578082015181840152602081019050611a11565b50505050905090810190601f168015611a595780820380516001836020036101000a031916815260200191505b509250505060405180910390fd5b506000838581611a7357fe5b04905080915050939250505056fe4f776e61626c653a206e6577206f776e657220697320746865207a65726f2061646472657373536166654d6174683a206d756c7469706c69636174696f6e206f766572666c6f77a264697066735822122051bce57b3009c10cae90dd8bfcde4b67626815d092408f8fe1bf619fe5dcbc5364736f6c634300060c0033",
  "immutableReferences": {},
  "source": "// SPDX-License-Identifier: MIT\npragma solidity >=0.6.12;\n\nimport '@pancakeswap/pancake-swap-lib/contracts/math/SafeMath.sol';\nimport '@pancakeswap/pancake-swap-lib/contracts/token/BEP20/IBEP20.sol';\nimport '@pancakeswap/pancake-swap-lib/contracts/token/BEP20/SafeBEP20.sol';\nimport '@pancakeswap/pancake-swap-lib/contracts/access/Ownable.sol';\n\nimport './CakeToken.sol';\nimport './SyrupBar.sol';\n\n\ncontract MasterChef is Ownable {\n    using SafeMath for uint256;\n    using SafeBEP20 for IBEP20;\n\n    struct UserInfo {\n        uint256 amount; // amount of LP tokens\n        uint256 rewardDebt; // already rewarded\n\n        // pending reward = (user.amount * pool.accCakePerShare) - user.rewardDebt\n    }\n\n    struct PoolInfo {\n        IBEP20 lpToken;\n        uint256 allocPoint;\n        uint256 lastRewardBlock;\n        uint256 accCakePerShare;\n    }\n\n    CakeToken public cake;\n    SyrupBar public syrup;\n    uint256 public cakePerBlock;\n    uint256 public BONUS_MULTIPLIER = 1;\n\n    PoolInfo[] public poolInfo;\n    mapping (uint256 => mapping(address => UserInfo)) public userInfo;\n\n    uint256 public totalAllocPoint = 0;\n    uint256 public startBlock;\n\n    event Deposit(address indexed user, uint256 indexed pid, uint256 amount);\n    event Withdraw(address indexed user, uint256 indexed pid, uint256 amount);\n\n    constructor(CakeToken _cake, SyrupBar _syrup, uint256 _cakePerBlock, uint256 _startBlock) public {\n        cake = _cake; syrup = _syrup; cakePerBlock = _cakePerBlock; startBlock = _startBlock;\n        // First LP token is CAKE\n        poolInfo.push(PoolInfo({\n            lpToken : _cake, allocPoint : 1000, lastRewardBlock : startBlock, accCakePerShare : 0\n        }));\n        totalAllocPoint = 1000;\n    }\n\n    function updateMultiplier(uint256 multiplierNumber) public {\n        BONUS_MULTIPLIER = multiplierNumber;\n    }\n\n    function getMultiplier(uint256 _from, uint256 _to) public view returns (uint256) {\n        return _to.sub(_from).mul(BONUS_MULTIPLIER);\n    }\n\n    function poolLength() external view returns(uint256) { return poolInfo.length; }\n\n    function getBlockNum() public view returns(uint256) {return block.number;}\n    function getPoolAlloc(uint idx) public view returns(uint256) {\n        return poolInfo[idx].allocPoint;\n    }\n\n    // Add new lp to the pool, it is OnlyOwner function\n    function add(uint256 _allocPoint, IBEP20 _lptoken) public  {\n        massUpdatePools();\n        \n        uint256 lastRewardBlock = block.number > startBlock ? block.number : startBlock;\n        poolInfo.push(\n            PoolInfo({\n            lpToken: _lptoken, \n            allocPoint: _allocPoint, \n            lastRewardBlock: lastRewardBlock, \n            accCakePerShare : 0\n        }));\n    }\n\n    // Update CAKE allocation point, it is OnlyOwner function\n    function set(uint256 _pid, uint256 _allocPoint) public {\n        massUpdatePools();\n\n        uint256 prevAllocPoint = poolInfo[_pid].allocPoint;\n        poolInfo[_pid].allocPoint = _allocPoint;\n        \n        if (prevAllocPoint != _allocPoint) {\n            totalAllocPoint = totalAllocPoint.sub(prevAllocPoint).add(_allocPoint);\n            updateStakingPool();\n        }\n    }\n\n    // Deposit LP tokens to MasterChef\n    function deposit(uint256 _pid, uint256 _amount) public {\n        require(_pid != 0);\n\n        PoolInfo storage pool = poolInfo[_pid];\n        UserInfo storage user = userInfo[_pid][msg.sender];\n\n        updatePool(_pid);\n        if (user.amount > 0) {\n            uint256 pending = user.amount.mul(pool.accCakePerShare).div(1e12).sub(user.rewardDebt);\n            if (pending > 0) { \n                safeCakeTransfer(msg.sender, pending);\n            }\n        }\n\n        if(_amount > 0) {\n            pool.lpToken.transferFrom(address(msg.sender), address(this), _amount);\n            user.amount = user.amount.add(_amount);\n        }\n\n        user.rewardDebt = user.amount.mul(pool.accCakePerShare).div(1e12);\n        emit Deposit(msg.sender, _pid, _amount);\n    }\n\n    function getUserAmount(uint256 _pid) public view returns(uint256) {\n        UserInfo storage user = userInfo[_pid][msg.sender];\n        return user.amount;\n    }\n\n    function getUserRewardDebt(uint256 _pid) public view returns(uint256) {\n        UserInfo storage user = userInfo[_pid][msg.sender];\n        return user.rewardDebt;\n    }\n\n    // Withdraw LP tokens from MasterChef\n    function withdraw(uint256 _pid, uint256 _amount) public {\n        require(_pid != 0);\n\n        PoolInfo storage pool = poolInfo[_pid];\n        UserInfo storage user = userInfo[_pid][msg.sender];\n        require(user.amount >= _amount);\n\n        updatePool(_pid);\n\n        uint256 pending = user.amount.mul(pool.accCakePerShare).div(1e12).sub(user.rewardDebt);\n        if (pending > 0) { safeCakeTransfer(msg.sender, pending); }\n        if (_amount > 0) {\n            user.amount = user.amount.sub(_amount);\n            pool.lpToken.transfer(address(msg.sender), _amount);\n        }\n\n        user.rewardDebt = user.amount.mul(pool.accCakePerShare).div(1e12);\n        emit Withdraw(msg.sender, _pid, _amount);\n    }\n\n\n\n\n\n    function massUpdatePools() public {\n        uint256 length = poolInfo.length;\n        for (uint256 pid = 0; pid < length; ++pid) {\n            updatePool(pid);\n        }\n    }\n\n    // Update reward of the pool\n    function updatePool(uint256 _pid) public {\n        PoolInfo storage pool = poolInfo[_pid];\n        if (block.number <= pool.lastRewardBlock) return;\n        uint256 lpSupply = pool.lpToken.balanceOf(address(this));\n        if (lpSupply == 0) {\n            pool.lastRewardBlock = block.number;\n            return;\n        }\n\n        uint256 multiplier = getMultiplier(pool.lastRewardBlock, block.number);\n        uint256 cakeReward = multiplier.mul(cakePerBlock).mul(pool.allocPoint).div(totalAllocPoint);\n        \n        cake.mint(address(syrup), cakeReward);\n\n        pool.accCakePerShare = pool.accCakePerShare.add(cakeReward.mul(1e12).div(lpSupply));\n        pool.lastRewardBlock = block.number;\n    }\n\n    // For LP Cake pool. it restake accPoint Automatically\n    function updateStakingPool() public {\n        uint256 length = poolInfo.length;\n        uint256 points = 0;\n\n        for (uint256 pid = 1; pid<length; ++pid) {\n            points = points.add(poolInfo[pid].allocPoint);\n        }\n        if (points != 0) {\n            points = points.div(3); //why\n            totalAllocPoint = totalAllocPoint.sub(poolInfo[0].allocPoint).add(points);\n            poolInfo[0].allocPoint = points;\n        }\n\n    }\n    \n    function safeCakeTransfer (address _to, uint256 _amount) internal {\n        syrup.safeCakeTransfer(_to, _amount);\n    }\n\n}\n\n\n\n\n\n\n",
  "sourcePath": "/Users/lee/pancake/contracts/MasterChef.sol",
  "compiler": {
    "name": "solc",
    "version": "0.6.12+commit.27d51765.Emscripten.clang"
  },
  "schemaVersion": "3.4.3",
  "updatedAt": "2021-10-29T07:15:30.467Z",
  "devdoc": {
    "kind": "dev",
    "methods": {
      "owner()": {
        "details": "Returns the address of the current owner."
      },
      "renounceOwnership()": {
        "details": "Leaves the contract without owner. It will not be possible to call `onlyOwner` functions anymore. Can only be called by the current owner. NOTE: Renouncing ownership will leave the contract without an owner, thereby removing any functionality that is only available to the owner."
      },
      "transferOwnership(address)": {
        "details": "Transfers ownership of the contract to a new account (`newOwner`). Can only be called by the current owner."
      }
    },
    "version": 1
  },
  "userdoc": {
    "kind": "user",
    "methods": {},
    "version": 1
  }
}